{
  "contractName": "TokenFactory",
  "abi": [
    {
      "inputs": [],
      "stateMutability": "nonpayable",
      "type": "constructor"
    },
    {
      "inputs": [
        {
          "internalType": "string",
          "name": "nameToken",
          "type": "string"
        },
        {
          "internalType": "string",
          "name": "symbolToken",
          "type": "string"
        }
      ],
      "name": "createToken",
      "outputs": [
        {
          "internalType": "address",
          "name": "token",
          "type": "address"
        }
      ],
      "stateMutability": "nonpayable",
      "type": "function"
    },
    {
      "inputs": [],
      "name": "getOwner",
      "outputs": [
        {
          "internalType": "address",
          "name": "",
          "type": "address"
        }
      ],
      "stateMutability": "view",
      "type": "function",
      "constant": true
    },
    {
      "inputs": [
        {
          "internalType": "string",
          "name": "nameToken",
          "type": "string"
        }
      ],
      "name": "getTokenAddress",
      "outputs": [
        {
          "internalType": "address",
          "name": "addressContract",
          "type": "address"
        }
      ],
      "stateMutability": "view",
      "type": "function",
      "constant": true
    }
  ],
  "bytecode": "0x608060405234801561001057600080fd5b50336000806101000a81548173ffffffffffffffffffffffffffffffffffffffff021916908373ffffffffffffffffffffffffffffffffffffffff16021790555061294e806100606000396000f3fe60806040523480156200001157600080fd5b5060043610620000465760003560e01c80632f2f2d56146200004b578063893d20e81462000081578063c409123614620000a3575b600080fd5b620000696004803603810190620000639190620003ee565b620000d9565b604051620000789190620004b8565b60405180910390f35b6200008b620001ba565b6040516200009a9190620004b8565b60405180910390f35b620000c16004803603810190620000bb9190620004d5565b620001e3565b604051620000d09190620004b8565b60405180910390f35b60008282604051620000eb906200026a565b620000f8929190620005b9565b604051809103906000f08015801562000115573d6000803e3d6000fd5b50905080600160003373ffffffffffffffffffffffffffffffffffffffff1673ffffffffffffffffffffffffffffffffffffffff1681526020019081526020016000208460405162000168919062000636565b908152602001604051809103902060006101000a81548173ffffffffffffffffffffffffffffffffffffffff021916908373ffffffffffffffffffffffffffffffffffffffff16021790555092915050565b60008060009054906101000a900473ffffffffffffffffffffffffffffffffffffffff16905090565b6000600160003373ffffffffffffffffffffffffffffffffffffffff1673ffffffffffffffffffffffffffffffffffffffff1681526020019081526020016000208260405162000234919062000636565b908152602001604051809103902060009054906101000a900473ffffffffffffffffffffffffffffffffffffffff169050919050565b6122c9806200065083390190565b6000604051905090565b600080fd5b600080fd5b600080fd5b600080fd5b6000601f19601f8301169050919050565b7f4e487b7100000000000000000000000000000000000000000000000000000000600052604160045260246000fd5b620002e18262000296565b810181811067ffffffffffffffff82111715620003035762000302620002a7565b5b80604052505050565b60006200031862000278565b9050620003268282620002d6565b919050565b600067ffffffffffffffff821115620003495762000348620002a7565b5b620003548262000296565b9050602081019050919050565b82818337600083830152505050565b60006200038762000381846200032b565b6200030c565b905082815260208101848484011115620003a657620003a562000291565b5b620003b384828562000361565b509392505050565b600082601f830112620003d357620003d26200028c565b5b8135620003e584826020860162000370565b91505092915050565b6000806040838503121562000408576200040762000282565b5b600083013567ffffffffffffffff81111562000429576200042862000287565b5b6200043785828601620003bb565b925050602083013567ffffffffffffffff8111156200045b576200045a62000287565b5b6200046985828601620003bb565b9150509250929050565b600073ffffffffffffffffffffffffffffffffffffffff82169050919050565b6000620004a08262000473565b9050919050565b620004b28162000493565b82525050565b6000602082019050620004cf6000830184620004a7565b92915050565b600060208284031215620004ee57620004ed62000282565b5b600082013567ffffffffffffffff8111156200050f576200050e62000287565b5b6200051d84828501620003bb565b91505092915050565b600081519050919050565b600082825260208201905092915050565b60005b838110156200056257808201518184015260208101905062000545565b8381111562000572576000848401525b50505050565b6000620005858262000526565b62000591818562000531565b9350620005a381856020860162000542565b620005ae8162000296565b840191505092915050565b60006040820190508181036000830152620005d5818562000578565b90508181036020830152620005eb818462000578565b90509392505050565b600081905092915050565b60006200060c8262000526565b620006188185620005f4565b93506200062a81856020860162000542565b80840191505092915050565b6000620006448284620005ff565b91508190509291505056fe60806040523480156200001157600080fd5b50604051620022c9380380620022c9833981810160405281019062000037919062000441565b818181600390816200004a919062000711565b5080600490816200005c919062000711565b50505033600560006101000a81548173ffffffffffffffffffffffffffffffffffffffff021916908373ffffffffffffffffffffffffffffffffffffffff160217905550620000e030620000b5620000f960201b60201c565b60ff16600a620000c691906200097b565b600a620000d49190620009cc565b6200010260201b60201c565b620000f06200027a60201b60201c565b50505062000b3b565b60006012905090565b600073ffffffffffffffffffffffffffffffffffffffff168273ffffffffffffffffffffffffffffffffffffffff160362000174576040517f08c379a00000000000000000000000000000000000000000000000000000000081526004016200016b9062000a8e565b60405180910390fd5b62000188600083836200029a60201b60201c565b80600260008282546200019c919062000ab0565b92505081905550806000808473ffffffffffffffffffffffffffffffffffffffff1673ffffffffffffffffffffffffffffffffffffffff1681526020019081526020016000206000828254620001f3919062000ab0565b925050819055508173ffffffffffffffffffffffffffffffffffffffff16600073ffffffffffffffffffffffffffffffffffffffff167fddf252ad1be2c89b69c2b068fc378daa952ba7f163c4a11628f55a4df523b3ef836040516200025a919062000b1e565b60405180910390a362000276600083836200029f60201b60201c565b5050565b6000620002933364174876e8006200010260201b60201c565b6001905090565b505050565b505050565b6000604051905090565b600080fd5b600080fd5b600080fd5b600080fd5b6000601f19601f8301169050919050565b7f4e487b7100000000000000000000000000000000000000000000000000000000600052604160045260246000fd5b6200030d82620002c2565b810181811067ffffffffffffffff821117156200032f576200032e620002d3565b5b80604052505050565b600062000344620002a4565b905062000352828262000302565b919050565b600067ffffffffffffffff821115620003755762000374620002d3565b5b6200038082620002c2565b9050602081019050919050565b60005b83811015620003ad57808201518184015260208101905062000390565b83811115620003bd576000848401525b50505050565b6000620003da620003d48462000357565b62000338565b905082815260208101848484011115620003f957620003f8620002bd565b5b620004068482856200038d565b509392505050565b600082601f830112620004265762000425620002b8565b5b815162000438848260208601620003c3565b91505092915050565b600080604083850312156200045b576200045a620002ae565b5b600083015167ffffffffffffffff8111156200047c576200047b620002b3565b5b6200048a858286016200040e565b925050602083015167ffffffffffffffff811115620004ae57620004ad620002b3565b5b620004bc858286016200040e565b9150509250929050565b600081519050919050565b7f4e487b7100000000000000000000000000000000000000000000000000000000600052602260045260246000fd5b600060028204905060018216806200051957607f821691505b6020821081036200052f576200052e620004d1565b5b50919050565b60008190508160005260206000209050919050565b60006020601f8301049050919050565b600082821b905092915050565b600060088302620005997fffffffffffffffffffffffffffffffffffffffffffffffffffffffffffffffff826200055a565b620005a586836200055a565b95508019841693508086168417925050509392505050565b6000819050919050565b6000819050919050565b6000620005f2620005ec620005e684620005bd565b620005c7565b620005bd565b9050919050565b6000819050919050565b6200060e83620005d1565b620006266200061d82620005f9565b84845462000567565b825550505050565b600090565b6200063d6200062e565b6200064a81848462000603565b505050565b5b8181101562000672576200066660008262000633565b60018101905062000650565b5050565b601f821115620006c1576200068b8162000535565b62000696846200054a565b81016020851015620006a6578190505b620006be620006b5856200054a565b8301826200064f565b50505b505050565b600082821c905092915050565b6000620006e660001984600802620006c6565b1980831691505092915050565b6000620007018383620006d3565b9150826002028217905092915050565b6200071c82620004c6565b67ffffffffffffffff811115620007385762000737620002d3565b5b62000744825462000500565b6200075182828562000676565b600060209050601f83116001811462000789576000841562000774578287015190505b620007808582620006f3565b865550620007f0565b601f198416620007998662000535565b60005b82811015620007c3578489015182556001820191506020850194506020810190506200079c565b86831015620007e35784890151620007df601f891682620006d3565b8355505b6001600288020188555050505b505050505050565b7f4e487b7100000000000000000000000000000000000000000000000000000000600052601160045260246000fd5b60008160011c9050919050565b6000808291508390505b600185111562000886578086048111156200085e576200085d620007f8565b5b60018516156200086e5780820291505b80810290506200087e8562000827565b94506200083e565b94509492505050565b600082620008a1576001905062000974565b81620008b1576000905062000974565b8160018114620008ca5760028114620008d5576200090b565b600191505062000974565b60ff841115620008ea57620008e9620007f8565b5b8360020a915084821115620009045762000903620007f8565b5b5062000974565b5060208310610133831016604e8410600b8410161715620009455782820a9050838111156200093f576200093e620007f8565b5b62000974565b62000954848484600162000834565b925090508184048111156200096e576200096d620007f8565b5b81810290505b9392505050565b60006200098882620005bd565b91506200099583620005bd565b9250620009c47fffffffffffffffffffffffffffffffffffffffffffffffffffffffffffffffff84846200088f565b905092915050565b6000620009d982620005bd565b9150620009e683620005bd565b9250817fffffffffffffffffffffffffffffffffffffffffffffffffffffffffffffffff048311821515161562000a225762000a21620007f8565b5b828202905092915050565b600082825260208201905092915050565b7f45524332303a206d696e7420746f20746865207a65726f206164647265737300600082015250565b600062000a76601f8362000a2d565b915062000a838262000a3e565b602082019050919050565b6000602082019050818103600083015262000aa98162000a67565b9050919050565b600062000abd82620005bd565b915062000aca83620005bd565b9250827fffffffffffffffffffffffffffffffffffffffffffffffffffffffffffffffff0382111562000b025762000b01620007f8565b5b828201905092915050565b62000b1881620005bd565b82525050565b600060208201905062000b35600083018462000b0d565b92915050565b61177e8062000b4b6000396000f3fe608060405234801561001057600080fd5b50600436106100f55760003560e01c806370a0823111610097578063a9059cbb11610066578063a9059cbb1461029e578063dd62ed3e146102ce578063deebeac9146102fe578063f8b2cb4f1461031a576100f5565b806370a0823114610202578063893d20e81461023257806395d89b4114610250578063a457c2d71461026e576100f5565b806318160ddd116100d357806318160ddd1461016657806323b872dd14610184578063313ce567146101b457806339509351146101d2576100f5565b806306fdde03146100fa578063095ea7b3146101185780631249c58b14610148575b600080fd5b61010261034a565b60405161010f9190610e9a565b60405180910390f35b610132600480360381019061012d9190610f55565b6103dc565b60405161013f9190610fb0565b60405180910390f35b6101506103ff565b60405161015d9190610fb0565b60405180910390f35b61016e610417565b60405161017b9190610fda565b60405180910390f35b61019e60048036038101906101999190610ff5565b610421565b6040516101ab9190610fb0565b60405180910390f35b6101bc610450565b6040516101c99190611064565b60405180910390f35b6101ec60048036038101906101e79190610f55565b610459565b6040516101f99190610fb0565b60405180910390f35b61021c6004803603810190610217919061107f565b610490565b6040516102299190610fda565b60405180910390f35b61023a6104d8565b60405161024791906110bb565b60405180910390f35b610258610502565b6040516102659190610e9a565b60405180910390f35b61028860048036038101906102839190610f55565b610594565b6040516102959190610fb0565b60405180910390f35b6102b860048036038101906102b39190610f55565b61060b565b6040516102c59190610fb0565b60405180910390f35b6102e860048036038101906102e391906110d6565b61062e565b6040516102f59190610fda565b60405180910390f35b6103186004803603810190610313919061107f565b6106b5565b005b610334600480360381019061032f919061107f565b610739565b6040516103419190610fda565b60405180910390f35b60606003805461035990611145565b80601f016020809104026020016040519081016040528092919081815260200182805461038590611145565b80156103d25780601f106103a7576101008083540402835291602001916103d2565b820191906000526020600020905b8154815290600101906020018083116103b557829003601f168201915b5050505050905090565b6000806103e76107bc565b90506103f48185856107c4565b600191505092915050565b60006104103364174876e80061098d565b6001905090565b6000600254905090565b60008061042c6107bc565b9050610439858285610aec565b610444858585610b78565b60019150509392505050565b60006012905090565b6000806104646107bc565b9050610485818585610476858961062e565b61048091906111a5565b6107c4565b600191505092915050565b60008060008373ffffffffffffffffffffffffffffffffffffffff1673ffffffffffffffffffffffffffffffffffffffff168152602001908152602001600020549050919050565b6000600560009054906101000a900473ffffffffffffffffffffffffffffffffffffffff16905090565b60606004805461051190611145565b80601f016020809104026020016040519081016040528092919081815260200182805461053d90611145565b801561058a5780601f1061055f5761010080835404028352916020019161058a565b820191906000526020600020905b81548152906001019060200180831161056d57829003601f168201915b5050505050905090565b60008061059f6107bc565b905060006105ad828661062e565b9050838110156105f2576040517f08c379a00000000000000000000000000000000000000000000000000000000081526004016105e99061126d565b60405180910390fd5b6105ff82868684036107c4565b60019250505092915050565b6000806106166107bc565b9050610623818585610b78565b600191505092915050565b6000600160008473ffffffffffffffffffffffffffffffffffffffff1673ffffffffffffffffffffffffffffffffffffffff16815260200190815260200160002060008373ffffffffffffffffffffffffffffffffffffffff1673ffffffffffffffffffffffffffffffffffffffff16815260200190815260200160002054905092915050565b3073ffffffffffffffffffffffffffffffffffffffff1663a9059cbb826101f46040518363ffffffff1660e01b81526004016106f29291906112d2565b6020604051808303816000875af1158015610711573d6000803e3d6000fd5b505050506040513d601f19601f820116820180604052508101906107359190611327565b5050565b60003073ffffffffffffffffffffffffffffffffffffffff166370a08231836040518263ffffffff1660e01b815260040161077491906110bb565b602060405180830381865afa158015610791573d6000803e3d6000fd5b505050506040513d601f19601f820116820180604052508101906107b59190611369565b9050919050565b600033905090565b600073ffffffffffffffffffffffffffffffffffffffff168373ffffffffffffffffffffffffffffffffffffffff1603610833576040517f08c379a000000000000000000000000000000000000000000000000000000000815260040161082a90611408565b60405180910390fd5b600073ffffffffffffffffffffffffffffffffffffffff168273ffffffffffffffffffffffffffffffffffffffff16036108a2576040517f08c379a00000000000000000000000000000000000000000000000000000000081526004016108999061149a565b60405180910390fd5b80600160008573ffffffffffffffffffffffffffffffffffffffff1673ffffffffffffffffffffffffffffffffffffffff16815260200190815260200160002060008473ffffffffffffffffffffffffffffffffffffffff1673ffffffffffffffffffffffffffffffffffffffff168152602001908152602001600020819055508173ffffffffffffffffffffffffffffffffffffffff168373ffffffffffffffffffffffffffffffffffffffff167f8c5be1e5ebec7d5bd14f71427d1e84f3dd0314c0f7b2291e5b200ac8c7c3b925836040516109809190610fda565b60405180910390a3505050565b600073ffffffffffffffffffffffffffffffffffffffff168273ffffffffffffffffffffffffffffffffffffffff16036109fc576040517f08c379a00000000000000000000000000000000000000000000000000000000081526004016109f390611506565b60405180910390fd5b610a0860008383610df7565b8060026000828254610a1a91906111a5565b92505081905550806000808473ffffffffffffffffffffffffffffffffffffffff1673ffffffffffffffffffffffffffffffffffffffff1681526020019081526020016000206000828254610a6f91906111a5565b925050819055508173ffffffffffffffffffffffffffffffffffffffff16600073ffffffffffffffffffffffffffffffffffffffff167fddf252ad1be2c89b69c2b068fc378daa952ba7f163c4a11628f55a4df523b3ef83604051610ad49190610fda565b60405180910390a3610ae860008383610dfc565b5050565b6000610af8848461062e565b90507fffffffffffffffffffffffffffffffffffffffffffffffffffffffffffffffff8114610b725781811015610b64576040517f08c379a0000000000000000000000000000000000000000000000000000000008152600401610b5b90611572565b60405180910390fd5b610b7184848484036107c4565b5b50505050565b600073ffffffffffffffffffffffffffffffffffffffff168373ffffffffffffffffffffffffffffffffffffffff1603610be7576040517f08c379a0000000000000000000000000000000000000000000000000000000008152600401610bde90611604565b60405180910390fd5b600073ffffffffffffffffffffffffffffffffffffffff168273ffffffffffffffffffffffffffffffffffffffff1603610c56576040517f08c379a0000000000000000000000000000000000000000000000000000000008152600401610c4d90611696565b60405180910390fd5b610c61838383610df7565b60008060008573ffffffffffffffffffffffffffffffffffffffff1673ffffffffffffffffffffffffffffffffffffffff16815260200190815260200160002054905081811015610ce7576040517f08c379a0000000000000000000000000000000000000000000000000000000008152600401610cde90611728565b60405180910390fd5b8181036000808673ffffffffffffffffffffffffffffffffffffffff1673ffffffffffffffffffffffffffffffffffffffff16815260200190815260200160002081905550816000808573ffffffffffffffffffffffffffffffffffffffff1673ffffffffffffffffffffffffffffffffffffffff1681526020019081526020016000206000828254610d7a91906111a5565b925050819055508273ffffffffffffffffffffffffffffffffffffffff168473ffffffffffffffffffffffffffffffffffffffff167fddf252ad1be2c89b69c2b068fc378daa952ba7f163c4a11628f55a4df523b3ef84604051610dde9190610fda565b60405180910390a3610df1848484610dfc565b50505050565b505050565b505050565b600081519050919050565b600082825260208201905092915050565b60005b83811015610e3b578082015181840152602081019050610e20565b83811115610e4a576000848401525b50505050565b6000601f19601f8301169050919050565b6000610e6c82610e01565b610e768185610e0c565b9350610e86818560208601610e1d565b610e8f81610e50565b840191505092915050565b60006020820190508181036000830152610eb48184610e61565b905092915050565b600080fd5b600073ffffffffffffffffffffffffffffffffffffffff82169050919050565b6000610eec82610ec1565b9050919050565b610efc81610ee1565b8114610f0757600080fd5b50565b600081359050610f1981610ef3565b92915050565b6000819050919050565b610f3281610f1f565b8114610f3d57600080fd5b50565b600081359050610f4f81610f29565b92915050565b60008060408385031215610f6c57610f6b610ebc565b5b6000610f7a85828601610f0a565b9250506020610f8b85828601610f40565b9150509250929050565b60008115159050919050565b610faa81610f95565b82525050565b6000602082019050610fc56000830184610fa1565b92915050565b610fd481610f1f565b82525050565b6000602082019050610fef6000830184610fcb565b92915050565b60008060006060848603121561100e5761100d610ebc565b5b600061101c86828701610f0a565b935050602061102d86828701610f0a565b925050604061103e86828701610f40565b9150509250925092565b600060ff82169050919050565b61105e81611048565b82525050565b60006020820190506110796000830184611055565b92915050565b60006020828403121561109557611094610ebc565b5b60006110a384828501610f0a565b91505092915050565b6110b581610ee1565b82525050565b60006020820190506110d060008301846110ac565b92915050565b600080604083850312156110ed576110ec610ebc565b5b60006110fb85828601610f0a565b925050602061110c85828601610f0a565b9150509250929050565b7f4e487b7100000000000000000000000000000000000000000000000000000000600052602260045260246000fd5b6000600282049050600182168061115d57607f821691505b6020821081036111705761116f611116565b5b50919050565b7f4e487b7100000000000000000000000000000000000000000000000000000000600052601160045260246000fd5b60006111b082610f1f565b91506111bb83610f1f565b9250827fffffffffffffffffffffffffffffffffffffffffffffffffffffffffffffffff038211156111f0576111ef611176565b5b828201905092915050565b7f45524332303a2064656372656173656420616c6c6f77616e63652062656c6f7760008201527f207a65726f000000000000000000000000000000000000000000000000000000602082015250565b6000611257602583610e0c565b9150611262826111fb565b604082019050919050565b600060208201905081810360008301526112868161124a565b9050919050565b6000819050919050565b6000819050919050565b60006112bc6112b76112b28461128d565b611297565b610f1f565b9050919050565b6112cc816112a1565b82525050565b60006040820190506112e760008301856110ac565b6112f460208301846112c3565b9392505050565b61130481610f95565b811461130f57600080fd5b50565b600081519050611321816112fb565b92915050565b60006020828403121561133d5761133c610ebc565b5b600061134b84828501611312565b91505092915050565b60008151905061136381610f29565b92915050565b60006020828403121561137f5761137e610ebc565b5b600061138d84828501611354565b91505092915050565b7f45524332303a20617070726f76652066726f6d20746865207a65726f2061646460008201527f7265737300000000000000000000000000000000000000000000000000000000602082015250565b60006113f2602483610e0c565b91506113fd82611396565b604082019050919050565b60006020820190508181036000830152611421816113e5565b9050919050565b7f45524332303a20617070726f766520746f20746865207a65726f20616464726560008201527f7373000000000000000000000000000000000000000000000000000000000000602082015250565b6000611484602283610e0c565b915061148f82611428565b604082019050919050565b600060208201905081810360008301526114b381611477565b9050919050565b7f45524332303a206d696e7420746f20746865207a65726f206164647265737300600082015250565b60006114f0601f83610e0c565b91506114fb826114ba565b602082019050919050565b6000602082019050818103600083015261151f816114e3565b9050919050565b7f45524332303a20696e73756666696369656e7420616c6c6f77616e6365000000600082015250565b600061155c601d83610e0c565b915061156782611526565b602082019050919050565b6000602082019050818103600083015261158b8161154f565b9050919050565b7f45524332303a207472616e736665722066726f6d20746865207a65726f20616460008201527f6472657373000000000000000000000000000000000000000000000000000000602082015250565b60006115ee602583610e0c565b91506115f982611592565b604082019050919050565b6000602082019050818103600083015261161d816115e1565b9050919050565b7f45524332303a207472616e7366657220746f20746865207a65726f206164647260008201527f6573730000000000000000000000000000000000000000000000000000000000602082015250565b6000611680602383610e0c565b915061168b82611624565b604082019050919050565b600060208201905081810360008301526116af81611673565b9050919050565b7f45524332303a207472616e7366657220616d6f756e742065786365656473206260008201527f616c616e63650000000000000000000000000000000000000000000000000000602082015250565b6000611712602683610e0c565b915061171d826116b6565b604082019050919050565b6000602082019050818103600083015261174181611705565b905091905056fea264697066735822122072d3aa2a2ecef284cb4333e31179ed7e89492cb972c0fb222e14a4e675a49d6d64736f6c634300080f0033a2646970667358221220e4af81dd8ca45c4e1aa93a8137ad3c7f49c57c1154e932577f1bd2fe9ce1ae1e64736f6c634300080f0033",
  "immutableReferences": {},
  "source": "// SPDX-License-Identifier: MIT\r\npragma solidity ^0.8.0;\r\n\r\nimport \"./Token.sol\";\r\nimport \"@openzeppelin/contracts/token/ERC20/IERC20.sol\";\r\n\r\ncontract TokenFactory{\r\n  address owner;\r\n\r\n  mapping(address=> mapping( string => address))internal  tokenAddress;\r\n\r\n  struct addressList {\r\n    address addressContract;\r\n    string nameToken;\r\n    string symbolToken;\r\n  }\r\n\r\n\r\n   constructor(){\r\n     owner = msg.sender;\r\n}\r\n    function createToken(string memory nameToken,string memory symbolToken)external returns(address token){\r\n        token = address(new Token(nameToken,symbolToken));\r\n        tokenAddress[msg.sender][nameToken] = token;\r\n    }\r\n    function getOwner()external view returns(address) {\r\n        return owner;\r\n    }\r\n    function getTokenAddress(string memory nameToken)external view returns(address addressContract){\r\n      return addressContract =  tokenAddress[msg.sender][nameToken];\r\n    }\r\n}",
  "sourcePath": "C:\\Users\\Asalef alena\\Desktop\\ezeyToken20\\contracts\\TokenFactory.sol",
  "compiler": {
    "name": "solc",
    "version": "0.8.15+commit.e14f2714.Emscripten.clang"
  },
  "schemaVersion": "3.4.8",
  "updatedAt": "2022-09-18T20:49:38.087Z",
  "networkType": "ethereum",
  "devdoc": {
    "kind": "dev",
    "methods": {},
    "version": 1
  },
  "userdoc": {
    "kind": "user",
    "methods": {},
    "version": 1
  }
}